:020000040800F2
:10000000E006002001010008E91500087F12000841
:1000100029150008CD020008ED1C000800000000B2
:100020000000000000000000000000005917000858
:100030004903000800000000571700085B1700087C
:100040001B0100081B0100081B0100081B01000820
:100050001B0100081B0100081B0100081B01000810
:100060001B0100081B0100081B0100081B01000800
:100070001B0100081B0100081B0100081B010008F0
:100080001B0100081B0100081B0100081B010008E0
:100090001B0100081B0100081B0100081B010008D0
:1000A0001B0100081B0100081B0100081B010008C0
:1000B0001B0100081B0100081B0100081B010008B0
:1000C0001B0100081B0100081B0100081B010008A0
:1000D0001B0100081B0100081B010008E11C0008AF
:1000E0001B0100081B0100081B010008DFF80CD0F1
:1000F00000F034F800480047951E0008E006002094
:100100000648804706480047FEE7FEE7FEE7FEE7B1
:10011000FEE7FEE7FEE7FEE7FEE7FEE7D117000891
:10012000ED00000810B5002200E0521C835C8C5CDE
:10013000A34201D1002BF8D1D8B2E1B2401A10BDD0
:1001400010B54843044601F0CBFE002805D000213D
:10015000002C02D0641E0155FAE710BD064C074D75
:1001600006E0E06840F0010394E807009847103487
:10017000AC42F6D3FFF7BEFFC41F0008E41F00081F
:1001800010B504460C2001F0ABFE002804D04472E8
:10019000002101720160416010BD70B505460C463A
:1001A0000C2001F09DFE002803D000210560C0E96D
:1001B000014170BD10B501000BD00A7A4AB1086840
:1001C000521E83680B600A72046801F0D5FD204658
:1001D00010BD002010BD70B50B4604001AD0002BD6
:1001E00018D011461846FFF7D8FF0546207A617AE5
:1001F000884207D32068416809B1006888472046D3
:10020000FFF7D8FF207A30B1606885606560207A9A
:10021000401C207270BD2560F8E7007A704700002E
:1002200070B506461578446901F078FA88B1E0683F
:10023000401CE060206801F0FDF900231A4613A17C
:10024000304601F00BFE29463046BDE8704001F013
:10025000FFB9A07DA84208D1D4E900100D4AFFF7EC
:10026000BAFFA068401CA06007E0206801F0E2F936
:1002700000202060E068401CE0603046BDE870402F
:1002800000231A4601A101F0E9BD00006465666122
:10029000756C74004D16000810B50446107855288A
:1002A0000CD1606901F0F0F900231A4604A1204640
:1002B00001F0D4FD00F07EF96169086110BD000015
:1002C0004C656E677468537461746500FEE70000E6
:1002D00070B506461578446901F020FA88B1E068E7
:1002E000401CE060206801F0A5F900231A4611A126
:1002F000304601F0B3FD29463046BDE8704001F0BC
:10030000A7B9A07D6840A0752068617D406845540C
:10031000607D401CC0B26075217D814205D1002303
:100320001A4606A1304601F099FD00F043F97169C3
:10033000086170BD64656661756C740042636353E7
:1003400074617465000000007047000010B590F8FB
:1003500021100024022903D00421816301243DE0FF
:1003600001680A6822F00E020A6001680A6822F039
:1003700001020A601A4A0168914201D1012121E07B
:10038000174A1432914201D110211BE0144A28323D
:10039000914201D1891515E0114A3C32914201D1B7
:1003A00089140FE00E4A5032914202D14FF480314D
:1003B00008E00B4A6432914202D14FF4801101E00F
:1003C0004FF08071064A083A5160012180F82110EF
:1003D000002180F82010416B01B18847204610BDF4
:1003E000080002402DE9F84FDFF890A100220AF141
:1003F000040B144601274FF00F090BF1040E00BF48
:100400000B6807FA04F52B40AB4274D1DFF870C1DA
:100410004E68A6EB0C0866452BD00DDC032E34D0BD
:1004200005DC36B3012E19D0022E2FD11BE0112E80
:1004300016D0122E2AD119E0B8F5881F19D006DC83
:10044000B8F5803F15D0B8F5801F1FD111E0B8F581
:10045000001F0ED0B8F5041F18D10AE0CA6815E0D5
:10046000CA68121D12E0CA6808320FE0CA680C326E
:100470000CE08A682AB1012A4FF0080203D04561D6
:1004800004E0042202E0056100E00022FF2B01D815
:10049000064601E000F104064FEA840501D9A5F102
:1004A0002005D6F800C009FA05F82CEA080C02FA73
:1004B00005F54CEA050CC6F800C04D68ED0057D5AF
:1004C000304DAE6946F00106AE61AD6924F0030619
:1004D00005F0010500952C4D06EB050CDCF80850E5
:1004E000A6074FEA167809FA08F6B543274EB04238
:1004F00002D1002610E03BE0254EB04201D101269A
:100500000AE0244EB04201D1022605E0224EB0425C
:1005100001D1032600E0042606FA08F62E43CCF8A3
:1005200008604D68DAF80060ED03554601D51E43BA
:1005300000E09E432E604D68DBF80060AD035D4631
:1005400001D51E4300E09E432E604D68DEF800603A
:10055000ED02754601D51E4300E09E432E604D68B6
:10056000AD020E4D2E6801D51E4300E09E432E6065
:10057000641C102CFFF444AFBDE8F88F0004014068
:10058000000011100010024000000140000801406E
:10059000000C014000100140001401400C04014017
:1005A0008068084000D0012070470AB1016170479F
:1005B0000904FBE7014800687047000014000020B0
:1005C00002480168491C01607047000014000020C7
:1005D000074810B5016841F010010160032000F0E8
:1005E0008BF8002000F006F800F018F8002010BD8D
:1005F0000020024010B5044607484FF47A710068A5
:10060000B0FBF1F000F01FFB00222146501E00F06D
:1006100053F8002010BD0000100000201E4808B54F
:10062000816941F001018161806900F00100009061
:10063000032000F061F8002211466FF00B0000F07B
:100640003BF8002211466FF00A0000F035F8002256
:1006500011466FF0090000F02FF800221146501FDC
:1006600000F02AF800221146101F00F025F80022A1
:100670001146901E00F020F800221146501E00F096
:100680001BF80648416821F0E0614160416841F093
:100690000071416008BD00000010024000000140F0
:1006A00000F01F02012191404009800000F1E0208C
:1006B000C0F8001170470000F0B40E4B1B680C46E8
:1006C000C3F30223C3F10705042D00D90425191D26
:1006D000072901D2002300E0DB1E012606FA05F1FE
:1006E000491E214099409E40761E16403143F0BC81
:1006F00000F07BBF0CED00E0064900F0070208683F
:100700004FF6FF03184040EA0220034A10430860F6
:10071000704700000CED00E00000FA052DE9F047FD
:10072000DFF83C8105460E46D8F8000000F00700CF
:10073000B0420CD2D8F8001021F007013143C8F8BC
:100740000010D8F8000000F00700B04263D128780C
:10075000444C800705D56068A96820F0F000084384
:1007600060602878C00745D06868012816D02168E5
:10077000022816D0890700294DDA616821F00301AB
:1007800001436160FFF716FF6968074641F2883050
:1007900001290FD00229814619D027E02168890359
:1007A000E9E78901E7E700BFFFF704FFC11B4945FF
:1007B00001D918E081466068C0F381000128F3D1B7
:1007C00018E000BFFFF7F6FEC11B49450BD8606873
:1007D000C0F381000228F5D10CE000BFFFF7EAFE6C
:1007E000C11B494502D90320BDE8F087606810F0BD
:1007F0000C0FF3D1D8F80010404601F00701B142C8
:100800000BD9016821F0070131430160006800F055
:100810000700B04201D00120E6E72878400705D55F
:100820006068E96820F4E0600843606028780007A9
:1008300006D56068296920F4605040EAC100606014
:1008400000F03CF86168084AC1F30311515CC840EC
:10085000064908600020FFF7CDFE0020C4E7000035
:100860000020024000100240AC1F000810000020D1
:100870000148006870470000100000200448054946
:1008800000684968044AC1F30221515CC8407047BE
:100890001000002000100240BC1F00080448054959
:1008A00000684968044AC1F3C221515CC8407047DE
:1008B0001000002000100240BC1F000810B512A359
:1008C00085B00FCB8DE80F0013A0144B0068049087
:1008D0005A68134802F00C0104290FD008290DD1E1
:1008E000C2F38344D2031DF8041009D55A6804AB3F
:1008F000C2F340429A5CB0FBF2F0484305B010BD31
:1009000008484843FAE700000203040506070809FF
:100910000A0B0C0D0E0F1010010200000010024017
:1009200000127A0000093D002DE9F84F04460078D6
:10093000B94DC00748D06868C0F38100012807D0CE
:100940006868C0F38100022809D16868C00306D531
:100950002868800338D5606800286FD034E060686C
:10096000B0F5803F0BD010B1B0F5A02F11D02868A2
:1009700020F480302860286820F4802002E0286875
:1009800040F480302860606888B1FFF713FE0646A7
:1009900009E0286840F480202860F0E7FFF70AFEAD
:1009A000801B642875D828688003F7D50CE0FFF712
:1009B00001FE064605E000BFFFF7FCFD801B642832
:1009C000F0D828688003F7D42078944E80074FF041
:1009D00001094FF000083BD5686810F00C0F07D0F4
:1009E0006868C0F38100022809D16868C00306D492
:1009F0002868800714D5206901281FD110E02069DC
:100A0000B0B1C6F80090FFF7D5FD074605E000BF7E
:100A1000FFF7D0FDC01B0228C4D828688007F7D58F
:100A20002868616920F0F80040EAC10028600FE002
:100A3000C6F80080FFF7BEFD074606E0E9E000BF0C
:100A4000FFF7B8FDC01B022823D828688007F7D419
:100A5000207800072CD57248A169D9B1C0F8009060
:100A6000FFF7A8FD074604E0FFF7A4FDC01B02281E
:100A70000FD8686A8007F7D56A484FF4FA510068C2
:100A8000B0FBF1F0009000BF0098411E0091FAD237
:100A90000EE080E0C0F80080FFF78CFD074604E020
:100AA000FFF788FDC01B022875D8686A8007F7D455
:100AB0002078400760D5E8690027C00008D4E869BD
:100AC00040F08050E861E869012700F08050009014
:100AD00055480168C90513D40168834641F4807103
:100AE0000160FFF767FD824606E000BFFFF762FD89
:100AF000A0EB0A0064284ED8DBF80000C005F5D54D
:100B0000E06801280AD008B1052813D0286A20F02F
:100B100001002862286A20F0040002E0286A40F000
:100B200001002862E06841F2883B98B1FFF742FD7E
:100B300082460BE0286A40F004002862EEE700BF1E
:100B4000FFF738FDA0EB0A0159455AD8286A8007FB
:100B5000F6D50CE0FFF72EFD824605E0FFF72AFDF3
:100B6000A0EB0A0159454CD8286A8007F6D41FB17A
:100B7000E86920F08050E861E06988B36968C1F3F2
:100B80008101022945D00228C6F8608004D0FFF711
:100B900011FD044638E034E0FFF70CFD074604E0A1
:100BA000FFF708FDC01B02282BD828688001F7D466
:100BB000206AB0F5803F05D16868A16820F4003054
:100BC00008436860D4E908010843696821F4741196
:100BD00008436860C6F86090FFF7ECFC044606E046
:100BE00015E000BFFFF7E6FC001B022809D82868C3
:100BF0008001F7D50BE000BFFFF7DCFC001B0228EB
:100C000002D90320BDE8F88F28688001F4D40020C1
:100C1000F8E70120F6E70000001002400000424221
:100C20008004424210000020007000404FF0E0219C
:100C30000428086903D020F004000861704740F0E0
:100C40000400FAE7704710B5401EB0F1807F01D371
:100C5000012010BD4FF0E02460610F21601700F00B
:100C6000C4FC0020A06107202061002010BD10B549
:100C7000FFF7E8FF10BD10B590F83C20012A25D001
:100C8000012280F83C20CA688C6822F4407222431A
:100C90004C6822F4806222430C6822F400622243F2
:100CA0000C6922F4805222434C6922F40052224300
:100CB0008C6922F48042224322F40041026800231E
:100CC0002143516480F83C30002010BD022010BD4B
:100CD00030B590F83C20012A20D0012280F83C2039
:100CE000022380F83D3003685C6824F070045C6087
:100CF00003685C680D682C435C6003689C6824F0A2
:100D000080049C6003689C6849680C439C6080F880
:100D10003D20002180F83C10084630BD022030BD47
:100D200010B5040003D094F83D0010B107E0012095
:100D300010BD002084F83C00204600F00DF8022091
:100D400084F83D00211D206800F066FD012084F834
:100D50003D00002010BD000008B50C4A01680C4899
:100D6000914207D1816941F400618161806900F499
:100D7000006009E0074A914207D1C16941F00201D0
:100D8000C161C06900F00200009008BD002C014064
:100D9000001002400004004070B5044690F83C008A
:100DA000012817D0012584F83C50022084F83D002A
:100DB0002068826822F0770222F47F42826008680D
:100DC000502837D00DDC202859D005DC88B31028F6
:100DD00041D151E0022070BD302853D040283AD193
:100DE0003FE060282ED070280BD0B0F5805F03D094
:100DF000B0F5005F2FD110E02068816821F0070175
:100E000015E0CB68D1E90121206800F046FD21689A
:100E1000886840F0770088601DE0CB68D1E9012147
:100E2000206800F03AFD2068816841F480418160CB
:100E300011E01EE0CA684968206800F0E3FD502117
:100E4000206806E0CA684968206800F0ECFD60216F
:100E5000206800F02CFD84F83D50002084F83C0010
:100E600070BDCA684968206800F0CCFD4021206848
:100E7000EFE700212068ECE710212068E9E7202156
:100E80002068E6E730212068E3E700007FB5104ADC
:100E90000168022403250F48914206D14FF4E06116
:100EA000CDE90014039569460FE00B4A91420ED13B
:100EB000C021CDE9001403956946FFF793FA01209C
:100EC000CDE90004694603950448FFF78BFA7FBD1E
:100ED000002C01400008014000040040000C0140CB
:100EE00070B5044690F83C000D4601280DD001264F
:100EF00084F83C60022084F83D0042B1042A18D0F6
:100F0000082A2AD00C2A4DD139E0022070BD206871
:100F100000F0D6FC2068816941F0080181612068F9
:100F2000816921F004018161206881692A69114386
:100F300011E0206800F0ECFC2068816941F4006158
:100F400081612068816921F4806181612068816903
:100F50002A6941EA0221816124E0206800F004FD51
:100F60002068C16941F00801C1612068C16921F0B0
:100F70000401C1612068C1692A69114311E0206838
:100F800000F01EFD2068C16941F40061C161206864
:100F9000C16921F48061C1612068C1692A6941EA9F
:100FA0000221C16184F83D60002084F83C0070BDDE
:100FB00010B5040003D094F83D0010B107E0012003
:100FC00010BD002084F83C00204600F00CF8022000
:100FD00084F83D00211D206800F01EFC012084F8EB
:100FE0003D00002010BD704710B504460068012286
:100FF00000F048FC07492068884203D1416C41F465
:10100000004141642068016841F001010160002055
:1010100010BD0000002C01407047000070B5026850
:1010200004461068D168536910F00F0F50D003F0D8
:10103000010501F4907635435DD0C20705D0CA059D
:1010400003D5E26B42F00102E263420705D5DA07FD
:1010500003D0E26B42F00202E263820705D5DA07B1
:1010600003D0E26B42F00402E263020705D5DA071F
:1010700003D0E26B42F00802E263E26B002A33D055
:10108000800604D5880602D5204600F0F4FC2068CE
:101090004069E16BC0F38010090700D428B32046F3
:1010A00000F0DBFC2068416949061AD5416921F04E
:1010B00040014161606BA0B11B494163606BFFF768
:1010C00045F9002810D0606B416BBDE870400847BF
:1010D000830610D58B060ED52046BDE8704000F083
:1010E000CABC2046FFF798FF70BD2046FFF794FF6B
:1010F0000020E06370BD030606D50B0604D520462C
:10110000BDE8704000F0BABD4006F3D54806F1D501
:10111000D168204621F04001D160202184F83910A7
:1011200000F0ACF870BD00004B1A000870B5040068
:1011300004D094F83900002510B106E0012070BDFC
:1011400084F83850204600F023F8242084F8390031
:101150002068C16821F40051C160204600F0D6FC2F
:101160002068016921F4904101612068416921F002
:101170002A0141612068C16841F40051C160E56302
:10118000202084F8390084F83A00002070BD000067
:1011900010B50068154986B0884225D11448C16948
:1011A00041F48021C161C069124C00F48020049098
:1011B0004FF4806000900220019003200390694664
:1011C0002046FFF70FF90021E014CDE9000102915C
:1011D00069462046FFF706F9002211462720FFF74F
:1011E0006BFA2720FFF75CFA06B010BD00480040FC
:1011F00000100240000C014090F83A30202B22D120
:10120000F9B1F2B190F83830012B1CD0816282859F
:10121000C2850021C163222280F83A2080F838106C
:101220000168CA6842F48072CA6001684A6942F083
:1012300001024A610068C16841F02001C1600020DC
:1012400070470120704702207047000010B5044627
:101250000068084988420BD107480178406800F0CF
:10126000F7F92046BDE8104001220349FFF7C4BF4B
:1012700010BD000000480040000000207047FEE75D
:101280000068002900DA494291FBF0F200FB1210DD
:10129000704710B50B460446FFF7F2FF616851F83E
:1012A000200010B14168994201D0002010BD0068B3
:1012B00010BD70B50546082000F012FE040007D0EE
:1012C000042128462560FEF73BFF6060204670BD84
:1012D000002070BD2DE9F04116460F46050006D0EE
:1012E000FFF7CEFF6968044651F8240010B10020D2
:1012F000BDE8F081082000F0F3FD0028F8D0C0E937
:101300000067696841F82400F2E7000070B5044600
:10131000157800F003FA002860690ED0C168002338
:10132000491CC1601A460DA1204600F097FD2946D0
:101330002046BDE8704000F08BB90575284600F0E6
:10134000FDF9616900231A46086006A1204600F0F5
:1013500085FDFFF72FF96169086170BD64656661FD
:10136000756C7400446174615374617465000000AD
:1013700030B5164885B0816941F0200181618169ED
:1013800001F020010491816941F0040181618169CA
:1013900001F004010491816941F0080181618069D3
:1013A0000B4D00F008004FF4004404900022214649
:1013B0002846FFF7FAF80120CDE90040022003900B
:1013C00069462846FFF70EF805B030BD0010024010
:1013D0000008014010B52D4894B02B490024C0E905
:1013E000001441F61F41C0E9024104614461846177
:1013F000FFF796FC00B1FEE74FF480500E900EA967
:101400002248FFF7C9FC00B1FEE72048FFF7D0FDF6
:1014100000B1FEE7129412A91C481394FFF758FC80
:1014200000B1FEE76020CDE9000404200294CDE97C
:10143000034005940022694614480694FFF750FDC6
:1014400000B1FEE7042269461048FFF749FD00B1EC
:10145000FEE7082269460D48FFF742FD00B1FEE7AE
:101460000794089409944FF400500A94CDE90B4076
:1014700007A906480D94FFF7FEFB00B1FEE70348FD
:10148000FFF704FD14B010BD002C01402000002027
:1014900010B524488EB022490024C0E9001441F65A
:1014A0001F41C0E9024104618461FFF739FC00B1CA
:1014B000FEE74FF48050079007A91A48FFF76CFC2D
:1014C00000B1FEE71748FFF773FD00B1FEE70B948C
:1014D0000BA914480C94FFF7FBFB00B1FEE760205A
:1014E000CDE90004042004900022694602940D48CE
:1014F000FFF7F6FC00B1FEE7042269460948FFF752
:10150000EFFC00B1FEE7082269460648FFF7E8FC59
:1015100000B1FEE70348FFF7B9FC0EB010BD0000B4
:101520000004004060000020FEE7000010B500212C
:101530000C48FFF759FD04210A48FFF755FD082123
:101540000848FFF751FD00210748FFF74DFD042132
:101550000548FFF749FDBDE8104008210248FFF7A4
:1015600043BD0000200000206000002070B51C4B2F
:101570001C4C00281D6806DBEE6A6E631D68ED6A70
:10158000281A256805E0ED6A266875631D68EE6A0D
:10159000304468631868002907DBC56A85631868EA
:1015A000C06A401A2168886306E0C06A2568A8639B
:1015B0001868C56A294481631868002A07DBC16A74
:1015C000C1631868C06A2168801AC86370BDC06AA8
:1015D0002168C8631868C16A1144C16370BD000006
:1015E000200000206000002070470907090E002835
:1015F00006DA00F00F0000F1E02080F8141D7047BB
:1016000000F1E02080F80014704710B5FFF762FE8B
:10161000012010BDFFF74DBE10B50C464968097892
:10162000FFF737FE020003D020469047012010BD8F
:10163000002010BD10B5040007D0606800F09CFBCE
:101640002046BDE8104000F097BB10BDFFF7F2BF89
:1016500013B50121C16001A9016100F0E7FB1CBDC8
:1016600070B50546182000F03BFC04462846FEF7FE
:1016700087FD002121616060A17561752175A16000
:10168000E1602046216070BD0021817541750175C2
:101690000160704770B50546182000F021FC044633
:1016A00000F0BCFB2846FFF7DBFF60610A492046DB
:1016B00000F09CFB094A0AA1204600F085FB0B4A7A
:1016C0000BA1204600F080FB0C4A0DA1204600F043
:1016D0007BFB204670BD0000990200080D13000836
:1016E0004C656E677468537461746500D1020008BC
:1016F0004461746153746174650000002102000844
:10170000426363537461746500000000406940687F
:10171000FEF783BD40694068FEF74CBD10B5044636
:10172000FEF748FF61690969401A0349884201D3FD
:10173000012010BD002010BDA086010070B5054637
:10174000082000F0CDFB04460570284600F0C8FBD9
:101750006060204670BD7047704710B5FEF730FFDF
:10176000BDE81040FFF783BA30B58FB001210804FF
:10177000CDE900100024029402250491CDE9075020
:101780004FF4E01009906846FFF7CEF800B1FEE78D
:101790000F20CDE90A054FF48060CDE90C4002210D
:1017A0000AA80E94FEF7BAFF00B1FEE7FFF760F853
:1017B0004FF47A71B0FBF1F0FFF745FA0420FFF720
:1017C00035FA00221146501EFEF776FF0FB030BDED
:1017D0000D48016841F00101016041680B4A114068
:1017E000416001680A4A11400160016821F48021CA
:1017F0000160416821F4FE0141604FF41F018160E6
:101800000449C00308607047001002400000FFF860
:10181000FFFFF6FE08ED00E0F0B50268164B174C2E
:10182000174D4FF08047984205D0B84203D0A042F0
:1018300001D0A84203D122F070064A683243984290
:1018400005D0B84203D0A04201D0A84203D122F46F
:101850004074CA68224322F080044A69224302602D
:101860008A68C2620A688262984201D1096901638A
:1018700001214161F0BD0000002C01400004004046
:101880000008004010B50123046A8B409C430462A9
:10189000036A8A401343036210BD10B5846842EAAC
:1018A000032224F47F440A432243826010BD8268ED
:1018B00022F070020A4342F0070181607047000085
:1018C00030B5026A22F001020262026A436884694A
:1018D00024F073050C682C4322F002058A682A4321
:1018E0000A4DA8420BD122F00805CA6823F44073C0
:1018F0002A434D6922F004021D438B692B43436048
:10190000846149684163026230BD0000002C0140DF
:1019100030B5026A22F010020262026A43688469EA
:101920000D6824F4E64444EA05248D6822F0200280
:1019300042EA05120B4DA8420ED1CD6822F080027A
:1019400042EA05124D6923F4406343EA85038D6939
:1019500022F0400243EA8503436084614968816361
:10196000026230BD002C014030B5026A22F4807260
:101970000262036A4268C46923F4007324F07305A9
:101980000C682C438D6843EA05230C4DA8420ED108
:10199000CD6823F4006343EA05234D6922F44052E5
:1019A00042EA05128D6923F4806342EA051242601F
:1019B000C4614968C163036230BD0000002C01406E
:1019C00030B5026A22F480520262046A4268C36936
:1019D0000D6823F4E64343EA05238D6824F400549C
:1019E00044EA0534064DA84204D14D6922F48042F0
:1019F00042EA85124260C36149680164046230BDF5
:101A0000002C014010B5036A046A24F0010404624A
:101A1000846924F0F00444EA021423F00A020A4321
:101A20008461026210BD10B5036A23F010030362E3
:101A30008369046A23F4704343EA023224F0A0036A
:101A400043EA01118261016210BD10B5406A0021B4
:101A5000C185C184FFF7E0FA10BD0168CA6822F4AD
:101A60009072CA6001684A6922F001024A6120212D
:101A700080F83A10704710B590F83A10222901D03A
:101A8000022010BD8168B1F5805F11D00169002985
:101A900001681FD0496801F07F03816A4A1C826295
:101AA0000B70C18D491E0904090CC18518D02BE0AB
:101AB0000269816A002A0268526805D0D2B20A809F
:101AC000816A491C8162ECE7C2F308020A80816ADC
:101AD000891CF7E74A68816A4B1C83620A70E0E759
:101AE0000168CA6822F02002CA600168CA6822F44C
:101AF0008072CA6001684A6922F001024A612021AD
:101B000080F83A10FFF7A2FB002010BD2DE9F0414C
:101B1000044600680169E26821F440511143016103
:101B20002169A0680843616908432168CA6841F2D5
:101B30000C639A430243CA6020684169A26921F498
:101B40004071114341614C49206864253226884226
:101B50003CD1FEF7A3FE00EBC00101EB0010616871
:101B60008900B0FBF1F7FEF799FE00EBC00101EB35
:101B700000106168B0468900B0FBF1F0B0FBF5F0F1
:101B80006FF01801484307EB800106EB0110B0FB32
:101B9000F5F000F0F006FEF781FE00EBC00101EB6E
:101BA000001061688900B0FBF1F0B0FBF5F006EBC6
:101BB0000016FEF773FE00EBC00101EB0010616838
:101BC0008900B0FBF1F7FEF769FE3BE0FEF756FE39
:101BD00000EBC00101EB001061688900B0FBF1F778
:101BE000FEF74CFE00EBC00101EB00106168B0464F
:101BF0008900B0FBF1F0B0FBF5F06FF0180148433D
:101C000007EB800106EB0110B0FBF5F000F0F006E9
:101C1000FEF734FE00EBC00101EB001061688900A3
:101C2000B0FBF1F0B0FBF5F006EB0016FEF726FE78
:101C300000EBC00101EB001061688900B0FBF1F717
:101C4000FEF71CFE00EBC00101EB0010616889008B
:101C5000B0FBF1F0B0FBF5F06FF01801484307EB73
:101C6000800108EB0110B0FBF5F0216800F00F00D7
:101C700030448860BDE8F0810038014090F83910A8
:101C8000212901D0022070478168B1F5805F016A87
:101C90000BD04A1C0262026809785160C18C491E4F
:101CA0000904090CC1840ED017E009880268C1F349
:101CB0000801516001690029016A02D0491C0162D2
:101CC000ECE7891CFBE70168CA6822F08002CA6061
:101CD0000068C16841F04001C16000207047000009
:101CE0000148FFF79BB90000A0000020FEE702E0DA
:101CF00008C8121F08C1002AFAD170477047002097
:101D000001E001C1121F002AFBD1704710B502206B
:101D1000FFF780FC094C0A4A0021A060FFF775FC20
:101D20000A20FFF7B7FC6060012221460548FFF753
:101D300063FABDE81040FFF7F9BB00000000002087
:101D40004D1F0008A000002010B50A4C6068FFF786
:101D5000DDFC00280CD06068FFF7DCFC0146E06089
:101D6000A068FFF759FCE068BDE81040FFF762BCCF
:101D700010BD00000000002010B5002821D0114B3C
:101D80000022001F196803E0814203D80A4649680F
:101D90000029F9D152B11368841A9C4204D1006819
:101DA00018441060104602E0506000E0186039B13D
:101DB00002680B1A934203D10B681A440260496807
:101DC000416010BD1800002070B5046815460E462D
:101DD0000C2000F085F800E00C46A1680029FBD13A
:101DE0000660C0E90151A060084670BD70B50446A8
:101DF0000D460C2000F074F806A1206001602068F8
:101E00004560216800208860206860600068A060EC
:101E1000002070BD64656661756C7400002101600E
:101E20008160C160016141610846704710B5036877
:101E30004FF0FF3283B1816871B100E09B681C688C
:101E40008C4202D0002BF9D106E02BB1D0E903126D
:101E50005B689847002010BD104610BD2DE9F04189
:101E60001E46174688460546046800E0A4686CB123
:101E700041462068FEF756F90028F7D16C602068CB
:101E80002E61C5E902070020BDE8F0814FF0FF3068
:101E9000FAE70000FEF79CFBFFF766FCFFF768FA25
:101EA000FFF7F6FAFFF796FA0C480B490C2201608F
:101EB0004FF4E131416000218160C160C0E904124A
:101EC0008161C161FFF732F900B1FEE7FFF71EFF44
:101ED000FFF73AFFFCE7000000480040A0000020A8
:101EE000F0B50B30154D20F007010024144A0FE027
:101EF00003688B420BD38B4205D95E1A431847689F
:101F0000C3E9006700E04368136002C004E0021DFB
:101F100010680028ECD12046002802D1286808B1BA
:101F20000020F0BD064A07481060074A121A22F046
:101F30000702C0E9002401202860D7E71C00002028
:101F400018000020E4000020E0020020FEB500217F
:101F50000122009101910291002822D044686B4631
:101F60005FF01800A65C53F821508640354343F8D3
:101F70002150083802F10102F4D5491C0329EFDB96
:101F80009DE80700FFF7F2FA074D4FF400442146A1
:101F90002846FEF705FB28B1002221462846FEF719
:101FA00004FBFEBD0122F8E700080140000000002C
:101FB00000000000010203040607080900000000F9
:101FC00001020304E41F00080000002020000000BC
:101FD000EE1C00080420000820000020C0060000BD
:101FE000FE1C0008000000000000000000000000CF
:101FF0000000000000A24A040000000000000000F1
:0420000000000000DC
:04000005080000ED02
:00000001FF
